{
  "address": "0x5FbDB2315678afecb367f032d93F642f64180aa3",
  "abi": [
    {
      "inputs": [
        {
          "internalType": "string",
          "name": "_topic",
          "type": "string"
        },
        {
          "internalType": "string[]",
          "name": "_options",
          "type": "string[]"
        }
      ],
      "name": "CreatePoll",
      "outputs": [
        {
          "components": [
            {
              "internalType": "uint256",
              "name": "id",
              "type": "uint256"
            },
            {
              "internalType": "string",
              "name": "topic",
              "type": "string"
            },
            {
              "internalType": "string[]",
              "name": "options",
              "type": "string[]"
            },
            {
              "internalType": "uint256[]",
              "name": "votes",
              "type": "uint256[]"
            },
            {
              "internalType": "address[]",
              "name": "voters",
              "type": "address[]"
            },
            {
              "internalType": "uint256",
              "name": "timestamp",
              "type": "uint256"
            }
          ],
          "internalType": "struct PollingContract.Poll",
          "name": "",
          "type": "tuple"
        }
      ],
      "stateMutability": "nonpayable",
      "type": "function"
    },
    {
      "inputs": [],
      "name": "_pollId",
      "outputs": [
        {
          "internalType": "uint256",
          "name": "",
          "type": "uint256"
        }
      ],
      "stateMutability": "view",
      "type": "function"
    },
    {
      "inputs": [
        {
          "internalType": "uint256",
          "name": "pollId",
          "type": "uint256"
        }
      ],
      "name": "getPoll",
      "outputs": [
        {
          "components": [
            {
              "internalType": "uint256",
              "name": "id",
              "type": "uint256"
            },
            {
              "internalType": "string",
              "name": "topic",
              "type": "string"
            },
            {
              "internalType": "string[]",
              "name": "options",
              "type": "string[]"
            },
            {
              "internalType": "uint256[]",
              "name": "votes",
              "type": "uint256[]"
            },
            {
              "internalType": "address[]",
              "name": "voters",
              "type": "address[]"
            },
            {
              "internalType": "uint256",
              "name": "timestamp",
              "type": "uint256"
            }
          ],
          "internalType": "struct PollingContract.Poll",
          "name": "poll",
          "type": "tuple"
        }
      ],
      "stateMutability": "view",
      "type": "function"
    },
    {
      "inputs": [
        {
          "internalType": "uint256",
          "name": "pollId",
          "type": "uint256"
        }
      ],
      "name": "hasVoted",
      "outputs": [
        {
          "internalType": "bool",
          "name": "",
          "type": "bool"
        }
      ],
      "stateMutability": "view",
      "type": "function"
    },
    {
      "inputs": [
        {
          "internalType": "uint256",
          "name": "",
          "type": "uint256"
        }
      ],
      "name": "polls",
      "outputs": [
        {
          "internalType": "uint256",
          "name": "id",
          "type": "uint256"
        },
        {
          "internalType": "string",
          "name": "topic",
          "type": "string"
        },
        {
          "internalType": "uint256",
          "name": "timestamp",
          "type": "uint256"
        }
      ],
      "stateMutability": "view",
      "type": "function"
    },
    {
      "inputs": [
        {
          "internalType": "uint256",
          "name": "pollId",
          "type": "uint256"
        },
        {
          "internalType": "uint256",
          "name": "optionIndex",
          "type": "uint256"
        }
      ],
      "name": "vote",
      "outputs": [
        {
          "internalType": "uint256",
          "name": "",
          "type": "uint256"
        }
      ],
      "stateMutability": "nonpayable",
      "type": "function"
    }
  ],
  "transactionHash": "0x13264ca3e8a614a5a77677f8c137bdec1df0ca1b21b5738659628cbec609c1d7",
  "args": [],
  "numDeployments": 1,
  "solcInputHash": "7e339499d827f74351a4fdb66fb91e9c",
  "bytecode": "0x608060405234801561001057600080fd5b50611997806100206000396000f3fe608060405234801561001057600080fd5b50600436106100625760003560e01c80630490c335146100675780631a8cbcaa146100855780635cc93ee4146100b5578063ac2f0074146100e5578063b384abef14610117578063ecca031f14610147575b600080fd5b61006f610177565b60405161007c9190610cf8565b60405180910390f35b61009f600480360381019061009a9190610d53565b61017d565b6040516100ac919061111e565b60405180910390f35b6100cf60048036038101906100ca919061135b565b61040f565b6040516100dc919061111e565b60405180910390f35b6100ff60048036038101906100fa9190610d53565b61081c565b60405161010e9392919061141d565b60405180910390f35b610131600480360381019061012c919061145b565b6108ce565b60405161013e9190610cf8565b60405180910390f35b610161600480360381019061015c9190610d53565b610a14565b60405161016e91906114b6565b60405180910390f35b60005481565b610185610af8565b600160008381526020019081526020016000206040518060c0016040529081600082015481526020016001820180546101bd90611500565b80601f01602080910402602001604051908101604052809291908181526020018280546101e990611500565b80156102365780601f1061020b57610100808354040283529160200191610236565b820191906000526020600020905b81548152906001019060200180831161021957829003601f168201915b5050505050815260200160028201805480602002602001604051908101604052809291908181526020016000905b8282101561031057838290600052602060002001805461028390611500565b80601f01602080910402602001604051908101604052809291908181526020018280546102af90611500565b80156102fc5780601f106102d1576101008083540402835291602001916102fc565b820191906000526020600020905b8154815290600101906020018083116102df57829003601f168201915b505050505081526020019060010190610264565b5050505081526020016003820180548060200260200160405190810160405280929190818152602001828054801561036757602002820191906000526020600020905b815481526020019060010190808311610353575b50505050508152602001600482018054806020026020016040519081016040528092919081815260200182805480156103f557602002820191906000526020600020905b8160009054906101000a900473ffffffffffffffffffffffffffffffffffffffff1673ffffffffffffffffffffffffffffffffffffffff16815260200190600101908083116103ab575b505050505081526020016005820154815250509050919050565b610417610af8565b60008351118015610429575060008251115b610468576040517f08c379a000000000000000000000000000000000000000000000000000000000815260040161045f9061157d565b60405180910390fd5b6000808154610476906115cc565b9190508190555060606040518060c001604052806000548152602001858152602001848152602001845167ffffffffffffffff8111156104b9576104b861114a565b5b6040519080825280602002602001820160405280156104e75781602001602082028036833780820191505090505b50815260200182815260200142815250600160008054815260200190815260200160002060008201518160000155602082015181600101908161052a91906117c0565b506040820151816002019080519060200190610547929190610b2e565b506060820151816003019080519060200190610564929190610b87565b506080820151816004019080519060200190610581929190610bd4565b5060a0820151816005015590505060016000805481526020019081526020016000206040518060c0016040529081600082015481526020016001820180546105c890611500565b80601f01602080910402602001604051908101604052809291908181526020018280546105f490611500565b80156106415780601f1061061657610100808354040283529160200191610641565b820191906000526020600020905b81548152906001019060200180831161062457829003601f168201915b5050505050815260200160028201805480602002602001604051908101604052809291908181526020016000905b8282101561071b57838290600052602060002001805461068e90611500565b80601f01602080910402602001604051908101604052809291908181526020018280546106ba90611500565b80156107075780601f106106dc57610100808354040283529160200191610707565b820191906000526020600020905b8154815290600101906020018083116106ea57829003601f168201915b50505050508152602001906001019061066f565b5050505081526020016003820180548060200260200160405190810160405280929190818152602001828054801561077257602002820191906000526020600020905b81548152602001906001019080831161075e575b505050505081526020016004820180548060200260200160405190810160405280929190818152602001828054801561080057602002820191906000526020600020905b8160009054906101000a900473ffffffffffffffffffffffffffffffffffffffff1673ffffffffffffffffffffffffffffffffffffffff16815260200190600101908083116107b6575b5050505050815260200160058201548152505091505092915050565b600160205280600052604060002060009150905080600001549080600101805461084590611500565b80601f016020809104026020016040519081016040528092919081815260200182805461087190611500565b80156108be5780601f10610893576101008083540402835291602001916108be565b820191906000526020600020905b8154815290600101906020018083116108a157829003601f168201915b5050505050908060050154905083565b60006108d983610a14565b15610919576040517f08c379a0000000000000000000000000000000000000000000000000000000008152600401610910906118de565b60405180910390fd5b60018060008581526020019081526020016000206003018381548110610942576109416118fe565b5b90600052602060002001600082825461095b919061192d565b9250508190555060016000848152602001908152602001600020600401339080600181540180825580915050600190039060005260206000200160009091909190916101000a81548173ffffffffffffffffffffffffffffffffffffffff021916908373ffffffffffffffffffffffffffffffffffffffff160217905550600160008481526020019081526020016000206003018281548110610a0157610a006118fe565b5b9060005260206000200154905092915050565b600080600160008481526020019081526020016000206004018054905003610a3f5760009050610af3565b60005b6000548111610aed57600160008481526020019081526020016000206004018181548110610a7357610a726118fe565b5b9060005260206000200160009054906101000a900473ffffffffffffffffffffffffffffffffffffffff1673ffffffffffffffffffffffffffffffffffffffff163373ffffffffffffffffffffffffffffffffffffffff1603610ada576001915050610af3565b8080610ae5906115cc565b915050610a42565b50600090505b919050565b6040518060c001604052806000815260200160608152602001606081526020016060815260200160608152602001600081525090565b828054828255906000526020600020908101928215610b76579160200282015b82811115610b75578251829081610b6591906117c0565b5091602001919060010190610b4e565b5b509050610b839190610c5e565b5090565b828054828255906000526020600020908101928215610bc3579160200282015b82811115610bc2578251825591602001919060010190610ba7565b5b509050610bd09190610c82565b5090565b828054828255906000526020600020908101928215610c4d579160200282015b82811115610c4c5782518260006101000a81548173ffffffffffffffffffffffffffffffffffffffff021916908373ffffffffffffffffffffffffffffffffffffffff16021790555091602001919060010190610bf4565b5b509050610c5a9190610c82565b5090565b5b80821115610c7e5760008181610c759190610c9f565b50600101610c5f565b5090565b5b80821115610c9b576000816000905550600101610c83565b5090565b508054610cab90611500565b6000825580601f10610cbd5750610cdc565b601f016020900490600052602060002090810190610cdb9190610c82565b5b50565b6000819050919050565b610cf281610cdf565b82525050565b6000602082019050610d0d6000830184610ce9565b92915050565b6000604051905090565b600080fd5b600080fd5b610d3081610cdf565b8114610d3b57600080fd5b50565b600081359050610d4d81610d27565b92915050565b600060208284031215610d6957610d68610d1d565b5b6000610d7784828501610d3e565b91505092915050565b610d8981610cdf565b82525050565b600081519050919050565b600082825260208201905092915050565b60005b83811015610dc9578082015181840152602081019050610dae565b60008484015250505050565b6000601f19601f8301169050919050565b6000610df182610d8f565b610dfb8185610d9a565b9350610e0b818560208601610dab565b610e1481610dd5565b840191505092915050565b600081519050919050565b600082825260208201905092915050565b6000819050602082019050919050565b6000610e578383610de6565b905092915050565b6000602082019050919050565b6000610e7782610e1f565b610e818185610e2a565b935083602082028501610e9385610e3b565b8060005b85811015610ecf5784840389528151610eb08582610e4b565b9450610ebb83610e5f565b925060208a01995050600181019050610e97565b50829750879550505050505092915050565b600081519050919050565b600082825260208201905092915050565b6000819050602082019050919050565b6000610f198383610d80565b60208301905092915050565b6000602082019050919050565b6000610f3d82610ee1565b610f478185610eec565b9350610f5283610efd565b8060005b83811015610f83578151610f6a8882610f0d565b9750610f7583610f25565b925050600181019050610f56565b5085935050505092915050565b600081519050919050565b600082825260208201905092915050565b6000819050602082019050919050565b600073ffffffffffffffffffffffffffffffffffffffff82169050919050565b6000610fe782610fbc565b9050919050565b610ff781610fdc565b82525050565b60006110098383610fee565b60208301905092915050565b6000602082019050919050565b600061102d82610f90565b6110378185610f9b565b935061104283610fac565b8060005b8381101561107357815161105a8882610ffd565b975061106583611015565b925050600181019050611046565b5085935050505092915050565b600060c0830160008301516110986000860182610d80565b50602083015184820360208601526110b08282610de6565b915050604083015184820360408601526110ca8282610e6c565b915050606083015184820360608601526110e48282610f32565b915050608083015184820360808601526110fe8282611022565b91505060a083015161111360a0860182610d80565b508091505092915050565b600060208201905081810360008301526111388184611080565b905092915050565b600080fd5b600080fd5b7f4e487b7100000000000000000000000000000000000000000000000000000000600052604160045260246000fd5b61118282610dd5565b810181811067ffffffffffffffff821117156111a1576111a061114a565b5b80604052505050565b60006111b4610d13565b90506111c08282611179565b919050565b600067ffffffffffffffff8211156111e0576111df61114a565b5b6111e982610dd5565b9050602081019050919050565b82818337600083830152505050565b6000611218611213846111c5565b6111aa565b90508281526020810184848401111561123457611233611145565b5b61123f8482856111f6565b509392505050565b600082601f83011261125c5761125b611140565b5b813561126c848260208601611205565b91505092915050565b600067ffffffffffffffff8211156112905761128f61114a565b5b602082029050602081019050919050565b600080fd5b60006112b96112b484611275565b6111aa565b905080838252602082019050602084028301858111156112dc576112db6112a1565b5b835b8181101561132357803567ffffffffffffffff81111561130157611300611140565b5b80860161130e8982611247565b855260208501945050506020810190506112de565b5050509392505050565b600082601f83011261134257611341611140565b5b81356113528482602086016112a6565b91505092915050565b6000806040838503121561137257611371610d1d565b5b600083013567ffffffffffffffff8111156113905761138f610d22565b5b61139c85828601611247565b925050602083013567ffffffffffffffff8111156113bd576113bc610d22565b5b6113c98582860161132d565b9150509250929050565b600082825260208201905092915050565b60006113ef82610d8f565b6113f981856113d3565b9350611409818560208601610dab565b61141281610dd5565b840191505092915050565b60006060820190506114326000830186610ce9565b818103602083015261144481856113e4565b90506114536040830184610ce9565b949350505050565b6000806040838503121561147257611471610d1d565b5b600061148085828601610d3e565b925050602061149185828601610d3e565b9150509250929050565b60008115159050919050565b6114b08161149b565b82525050565b60006020820190506114cb60008301846114a7565b92915050565b7f4e487b7100000000000000000000000000000000000000000000000000000000600052602260045260246000fd5b6000600282049050600182168061151857607f821691505b60208210810361152b5761152a6114d1565b5b50919050565b7f496e636f6d706c65746520706172616d65746572730000000000000000000000600082015250565b60006115676015836113d3565b915061157282611531565b602082019050919050565b600060208201905081810360008301526115968161155a565b9050919050565b7f4e487b7100000000000000000000000000000000000000000000000000000000600052601160045260246000fd5b60006115d782610cdf565b91507fffffffffffffffffffffffffffffffffffffffffffffffffffffffffffffffff82036116095761160861159d565b5b600182019050919050565b60008190508160005260206000209050919050565b60006020601f8301049050919050565b600082821b905092915050565b6000600883026116767fffffffffffffffffffffffffffffffffffffffffffffffffffffffffffffffff82611639565b6116808683611639565b95508019841693508086168417925050509392505050565b6000819050919050565b60006116bd6116b86116b384610cdf565b611698565b610cdf565b9050919050565b6000819050919050565b6116d7836116a2565b6116eb6116e3826116c4565b848454611646565b825550505050565b600090565b6117006116f3565b61170b8184846116ce565b505050565b5b8181101561172f576117246000826116f8565b600181019050611711565b5050565b601f8211156117745761174581611614565b61174e84611629565b8101602085101561175d578190505b61177161176985611629565b830182611710565b50505b505050565b600082821c905092915050565b600061179760001984600802611779565b1980831691505092915050565b60006117b08383611786565b9150826002028217905092915050565b6117c982610d8f565b67ffffffffffffffff8111156117e2576117e161114a565b5b6117ec8254611500565b6117f7828285611733565b600060209050601f83116001811461182a5760008415611818578287015190505b61182285826117a4565b86555061188a565b601f19841661183886611614565b60005b828110156118605784890151825560018201915060208501945060208101905061183b565b8683101561187d5784890151611879601f891682611786565b8355505b6001600288020188555050505b505050505050565b7f596f75206861766520766f74656420616c726561647900000000000000000000600082015250565b60006118c86016836113d3565b91506118d382611892565b602082019050919050565b600060208201905081810360008301526118f7816118bb565b9050919050565b7f4e487b7100000000000000000000000000000000000000000000000000000000600052603260045260246000fd5b600061193882610cdf565b915061194383610cdf565b925082820190508082111561195b5761195a61159d565b5b9291505056fea2646970667358221220886d3f78e6812bf7632ac74d94ddb9840f6261df851d8c7c140e5dec92308c3d64736f6c63430008120033",
  "devdoc": {
    "kind": "dev",
    "methods": {},
    "version": 1
  },
  "userdoc": {
    "kind": "user",
    "methods": {},
    "version": 1
  },
  "storageLayout": {
    "storage": [
      {
        "astId": 20,
        "contract": "contracts/PollingContract.sol:PollingContract",
        "label": "_pollId",
        "offset": 0,
        "slot": "0",
        "type": "t_uint256"
      },
      {
        "astId": 25,
        "contract": "contracts/PollingContract.sol:PollingContract",
        "label": "polls",
        "offset": 0,
        "slot": "1",
        "type": "t_mapping(t_uint256,t_struct(Poll)18_storage)"
      }
    ],
    "types": {
      "t_address": {
        "encoding": "inplace",
        "label": "address",
        "numberOfBytes": "20"
      },
      "t_array(t_address)dyn_storage": {
        "base": "t_address",
        "encoding": "dynamic_array",
        "label": "address[]",
        "numberOfBytes": "32"
      },
      "t_array(t_string_storage)dyn_storage": {
        "base": "t_string_storage",
        "encoding": "dynamic_array",
        "label": "string[]",
        "numberOfBytes": "32"
      },
      "t_array(t_uint256)dyn_storage": {
        "base": "t_uint256",
        "encoding": "dynamic_array",
        "label": "uint256[]",
        "numberOfBytes": "32"
      },
      "t_mapping(t_uint256,t_struct(Poll)18_storage)": {
        "encoding": "mapping",
        "key": "t_uint256",
        "label": "mapping(uint256 => struct PollingContract.Poll)",
        "numberOfBytes": "32",
        "value": "t_struct(Poll)18_storage"
      },
      "t_string_storage": {
        "encoding": "bytes",
        "label": "string",
        "numberOfBytes": "32"
      },
      "t_struct(Poll)18_storage": {
        "encoding": "inplace",
        "label": "struct PollingContract.Poll",
        "members": [
          {
            "astId": 4,
            "contract": "contracts/PollingContract.sol:PollingContract",
            "label": "id",
            "offset": 0,
            "slot": "0",
            "type": "t_uint256"
          },
          {
            "astId": 6,
            "contract": "contracts/PollingContract.sol:PollingContract",
            "label": "topic",
            "offset": 0,
            "slot": "1",
            "type": "t_string_storage"
          },
          {
            "astId": 9,
            "contract": "contracts/PollingContract.sol:PollingContract",
            "label": "options",
            "offset": 0,
            "slot": "2",
            "type": "t_array(t_string_storage)dyn_storage"
          },
          {
            "astId": 12,
            "contract": "contracts/PollingContract.sol:PollingContract",
            "label": "votes",
            "offset": 0,
            "slot": "3",
            "type": "t_array(t_uint256)dyn_storage"
          },
          {
            "astId": 15,
            "contract": "contracts/PollingContract.sol:PollingContract",
            "label": "voters",
            "offset": 0,
            "slot": "4",
            "type": "t_array(t_address)dyn_storage"
          },
          {
            "astId": 17,
            "contract": "contracts/PollingContract.sol:PollingContract",
            "label": "timestamp",
            "offset": 0,
            "slot": "5",
            "type": "t_uint256"
          }
        ],
        "numberOfBytes": "192"
      },
      "t_uint256": {
        "encoding": "inplace",
        "label": "uint256",
        "numberOfBytes": "32"
      }
    }
  }
}